{
  "transactions": [
    {
      "hash": "0x83102e66acebe25bd4deaf4fc468922912c9a3a5f0865e416326528d0da95dc6",
      "transactionType": "CALL",
      "contractName": null,
      "contractAddress": "0x67842c049bd2b33de4c17225a35e48f1d42d0c17",
      "function": "mintNft(string,string,uint96)",
      "arguments": [
        "Dancing forever",
        "https://ipfs.io/ipfs/bafybeiehuuwijco3dgblpaq56isbrum32gtjd6neaewj322c5ptjp5vdjy",
        "500"
      ],
      "transaction": {
        "from": "0x2bd5a8d3a93a13642327f2dc6c3dcb4ac90db505",
        "to": "0x67842c049bd2b33de4c17225a35e48f1d42d0c17",
        "gas": "0x5856e",
        "value": "0x0",
        "input": "0x08db8bce000000000000000000000000000000000000000000000000000000000000006000000000000000000000000000000000000000000000000000000000000000a000000000000000000000000000000000000000000000000000000000000001f4000000000000000000000000000000000000000000000000000000000000000f44616e63696e6720666f72657665720000000000000000000000000000000000000000000000000000000000000000000000000000000000000000000000005068747470733a2f2f697066732e696f2f697066732f626166796265696568757577696a636f336467626c706171353669736272756d333267746a64366e656165776a333232633570746a703576646a7900000000000000000000000000000000",
        "nonce": "0x67",
        "chainId": "0xaa36a7"
      },
      "additionalContracts": [],
      "isFixedGasLimit": false
    }
  ],
  "receipts": [
    {
      "status": "0x1",
      "cumulativeGasUsed": "0x10a6c17",
      "logs": [
        {
          "address": "0x67842c049bd2b33de4c17225a35e48f1d42d0c17",
          "topics": [
            "0xddf252ad1be2c89b69c2b068fc378daa952ba7f163c4a11628f55a4df523b3ef",
            "0x0000000000000000000000000000000000000000000000000000000000000000",
            "0x0000000000000000000000002bd5a8d3a93a13642327f2dc6c3dcb4ac90db505",
            "0x0000000000000000000000000000000000000000000000000000000000000000"
          ],
          "data": "0x",
          "blockHash": "0xaa4cd13cde1c52806716ce1c4dfd923af98b6918d740d41b1d447f21083b7985",
          "blockNumber": "0xa18d33",
          "blockTimestamp": "0x69d0d0e8",
          "transactionHash": "0x83102e66acebe25bd4deaf4fc468922912c9a3a5f0865e416326528d0da95dc6",
          "transactionIndex": "0x8a",
          "logIndex": "0x2cb",
          "removed": false
        }
      ],
      "logsBloom": "0x00000000000000000000000000000000000000000000000000000000000000000000000000000000000000000000000000000000010000000000000000000000000000000000000000000008000000000000000000000010000000000000000000000000020000000000000000000800000000000000000020000010000000000000000000000000000000000000000000000000000000000000000000000000000000000000000000000000000000000000000000000000000000000000000000000002000000000000000002000000000000000000000000000000000020000000100000000000000000000000080000000000000000000000000000000000",
      "type": "0x2",
      "transactionHash": "0x83102e66acebe25bd4deaf4fc468922912c9a3a5f0865e416326528d0da95dc6",
      "transactionIndex": "0x8a",
      "blockHash": "0xaa4cd13cde1c52806716ce1c4dfd923af98b6918d740d41b1d447f21083b7985",
      "blockNumber": "0xa18d33",
      "gasUsed": "0x3ff4d",
      "effectiveGasPrice": "0xf4262",
      "from": "0x2bd5a8d3a93a13642327f2dc6c3dcb4ac90db505",
      "to": "0x67842c049bd2b33de4c17225a35e48f1d42d0c17",
      "contractAddress": null
    }
  ],
  "libraries": [],
  "pending": [],
  "returns": {},
  "timestamp": 1775292650010,
  "chain": 11155111,
  "commit": "89ce9e9"
}