{
  "transactions": [
    {
      "hash": "0x922cbbe1129058497aa41073a0de007d062f5dd3196fd956761d28183f9c3774",
      "transactionType": "CALL",
      "contractName": null,
      "contractAddress": "0x318fd0a920c32693ecf6a8de8b82bbff5a3f2c9c",
      "function": "mintNft(string)",
      "arguments": [
        "ipfs://bafybeig37ioir76s7mg5oobetncojcm3c3hxasyd4rvid4jqhy4gkaheg4/?filename=0-PUG.json"
      ],
      "transaction": {
        "from": "0x2bd5a8d3a93a13642327f2dc6c3dcb4ac90db505",
        "to": "0x318fd0a920c32693ecf6a8de8b82bbff5a3f2c9c",
        "gas": "0x3da7f",
        "value": "0x0",
        "input": "0xda86f4a900000000000000000000000000000000000000000000000000000000000000200000000000000000000000000000000000000000000000000000000000000057697066733a2f2f62616679626569673337696f6972373673376d67356f6f6265746e636f6a636d3363336878617379643472766964346a71687934676b61686567342f3f66696c656e616d653d302d5055472e6a736f6e000000000000000000",
        "nonce": "0x5b",
        "chainId": "0xaa36a7"
      },
      "additionalContracts": [],
      "isFixedGasLimit": false
    }
  ],
  "receipts": [
    {
      "status": "0x1",
      "cumulativeGasUsed": "0xe3622e",
      "logs": [
        {
          "address": "0x318fd0a920c32693ecf6a8de8b82bbff5a3f2c9c",
          "topics": [
            "0xddf252ad1be2c89b69c2b068fc378daa952ba7f163c4a11628f55a4df523b3ef",
            "0x0000000000000000000000000000000000000000000000000000000000000000",
            "0x0000000000000000000000002bd5a8d3a93a13642327f2dc6c3dcb4ac90db505",
            "0x0000000000000000000000000000000000000000000000000000000000000000"
          ],
          "data": "0x",
          "blockHash": "0x837b6de873dce0cebbda6c4d42e5937fd6c5be5f2f0dce1462430346db69e306",
          "blockNumber": "0x9dac13",
          "blockTimestamp": "0x699ecd78",
          "transactionHash": "0x922cbbe1129058497aa41073a0de007d062f5dd3196fd956761d28183f9c3774",
          "transactionIndex": "0x79",
          "logIndex": "0x120",
          "removed": false
        }
      ],
      "logsBloom": "0x00000000000000000000000000000000000000000000000000000000000000000000000000000000000000000000000000000000000000000000000000000000000000000000000000000008000000000000000000000010000000000000000000000000020000000000000000000800000000000000000020000010000000001000000000000000000000000000000000400000000000000000000000000000000000000000000000000000000000000000000000000000000000000000000000000002000000000000000000000000000800000000000000000000000020000000100000000000000000000000000000000000000000000000000000000000",
      "type": "0x2",
      "transactionHash": "0x922cbbe1129058497aa41073a0de007d062f5dd3196fd956761d28183f9c3774",
      "transactionIndex": "0x79",
      "blockHash": "0x837b6de873dce0cebbda6c4d42e5937fd6c5be5f2f0dce1462430346db69e306",
      "blockNumber": "0x9dac13",
      "gasUsed": "0x2ca35",
      "effectiveGasPrice": "0xf43e7",
      "from": "0x2bd5a8d3a93a13642327f2dc6c3dcb4ac90db505",
      "to": "0x318fd0a920c32693ecf6a8de8b82bbff5a3f2c9c",
      "contractAddress": null
    }
  ],
  "libraries": [],
  "pending": [],
  "returns": {},
  "timestamp": 1772014970224,
  "chain": 11155111,
  "commit": "a4a2039"
}