{
  "transactions": [
    {
      "hash": "0x2fd6194a9cfeb7a54e8683dcc12bf18212fb0e54a3efb651d7feb045e1fe286d",
      "transactionType": "CALL",
      "contractName": null,
      "contractAddress": "0x7182b275d521589c8cc4bed06d00f6c1ff0644eb",
      "function": "mintNft(string,string,uint96)",
      "arguments": [
        "Dancing forever",
        "https://ipfs.io/ipfs/bafybeiehuuwijco3dgblpaq56isbrum32gtjd6neaewj322c5ptjp5vdjy",
        "500"
      ],
      "transaction": {
        "from": "0x2bd5a8d3a93a13642327f2dc6c3dcb4ac90db505",
        "to": "0x7182b275d521589c8cc4bed06d00f6c1ff0644eb",
        "gas": "0x5d801",
        "value": "0x0",
        "input": "0x08db8bce000000000000000000000000000000000000000000000000000000000000006000000000000000000000000000000000000000000000000000000000000000a000000000000000000000000000000000000000000000000000000000000001f4000000000000000000000000000000000000000000000000000000000000000f44616e63696e6720666f72657665720000000000000000000000000000000000000000000000000000000000000000000000000000000000000000000000005068747470733a2f2f697066732e696f2f697066732f626166796265696568757577696a636f336467626c706171353669736272756d333267746a64366e656165776a333232633570746a703576646a7900000000000000000000000000000000",
        "nonce": "0x65",
        "chainId": "0xaa36a7"
      },
      "additionalContracts": [],
      "isFixedGasLimit": false
    }
  ],
  "receipts": [
    {
      "status": "0x1",
      "cumulativeGasUsed": "0xeab45f",
      "logs": [
        {
          "address": "0x7182b275d521589c8cc4bed06d00f6c1ff0644eb",
          "topics": [
            "0xddf252ad1be2c89b69c2b068fc378daa952ba7f163c4a11628f55a4df523b3ef",
            "0x0000000000000000000000000000000000000000000000000000000000000000",
            "0x0000000000000000000000002bd5a8d3a93a13642327f2dc6c3dcb4ac90db505",
            "0x0000000000000000000000000000000000000000000000000000000000000000"
          ],
          "data": "0x",
          "blockHash": "0x2fb1e7c21235157015e672ff7338f4c71c687ef21ec7f39938a4a4728523b177",
          "blockNumber": "0xa0d304",
          "blockTimestamp": "0x69c7d220",
          "transactionHash": "0x2fd6194a9cfeb7a54e8683dcc12bf18212fb0e54a3efb651d7feb045e1fe286d",
          "transactionIndex": "0x58",
          "logIndex": "0x22c",
          "removed": false
        }
      ],
      "logsBloom": "0x00000000000000000000000000000000000000000000000000000000000000000000000000000000000000000000000000000000000000000000000000000000000000000000000000000008000000000000000000000010000000080000000100000000020000000000000000000800000000000000000020000010000000000000000000000000000000000000000000000000000000000000000000000000000000000000000000000000000000000000000000000000000000000000000020000002000000000000000000000000000000000000000000000000000020000000100000000000000000000000000000000000000000000000000000000000",
      "type": "0x2",
      "transactionHash": "0x2fd6194a9cfeb7a54e8683dcc12bf18212fb0e54a3efb651d7feb045e1fe286d",
      "transactionIndex": "0x58",
      "blockHash": "0x2fb1e7c21235157015e672ff7338f4c71c687ef21ec7f39938a4a4728523b177",
      "blockNumber": "0xa0d304",
      "gasUsed": "0x3fee9",
      "effectiveGasPrice": "0xf4251",
      "from": "0x2bd5a8d3a93a13642327f2dc6c3dcb4ac90db505",
      "to": "0x7182b275d521589c8cc4bed06d00f6c1ff0644eb",
      "contractAddress": null
    }
  ],
  "libraries": [],
  "pending": [],
  "returns": {},
  "timestamp": 1774703138491,
  "chain": 11155111,
  "commit": "ac3cd6c"
}